:100000000C942A000C9465000C943C000C943C0069
:100010000C943C000C943C000C943C000C943C0070
:100020000C943C000C943C000C943C000C94690330
:100030000C943C000C943C000C943C000C943C0050
:100040000C943C000C943C000C943C000C943C0040
:100050000C943C0011241FBECFE5D8E0DEBFCDBF1D
:1000600020E0A0E6B0E001C01D92AA36B207E1F799
:100070000E9448020C94B4030C9400008091630029
:100080008F5F80936300809163008430E9F4109265
:100090006300809165008F5F8093650080916400AC
:1000A0008F5F8093640080916500853029F4109201
:1000B000650081E08093670080916400813021F4C5
:1000C000109264008093660008951F920F920FB6FD
:1000D0000F9211248F9381E080936200109265004B
:1000E00010926400109263008F910F900FBE0F90DA
:1000F0001F901895CF93DF93CDB7DEB72A970FB631
:10010000F894DEBF0FBECDBF19821A821B821C82FB
:100110001D821E821F82188685E089871A86CE017D
:1001200001960E9492038EE390E00E94AF032A960C
:100130000FB6F894DEBF0FBECDBFDF91CF9108950B
:1001400080916100813011F130F08230D9F183303B
:1001500009F44EC0089560E080E00E943B0261E037
:1001600080E00E943F0262E080E00E943F028091B6
:100170006700882309F456C01092670081E08093DD
:10018000610061E080E00E943B02089560E080E051
:100190000E943F0280916600882331F01092660031
:1001A00061E080E00E94430262E080E00E943F0242
:1001B000809167008823B1F11092670082E08093FC
:1001C0006100089560E080E00E943F0261E080E00D
:1001D0000E943F0262E080E00E943B028091670043
:1001E000882301F11092670083E0809361000895F5
:1001F00060E080E00E943F0280916600882331F039
:100200001092660061E080E00E94430262E080E0BC
:100210000E943F0280916700882321F010926700BE
:1002200010926100089580916100823009F052C0FF
:1002300080916000882319F0813001F1089560E019
:1002400081E00E943B0262E081E00E943F028091D7
:100250006700882309F4C1C01092670060E081E064
:100260000E943F0261E081E00E943B0261E080E089
:100270000E943B0281E080936000089580916600B7
:10028000882351F01092660061E081E00E944302F1
:1002900061E080E00E94430280916700882309F4B6
:1002A0009CC01092670061E081E00E943F0261E023
:1002B00080E00E943F0262E081E00E943B0260E039
:1002C00080E00E943B021092600010926100109248
:1002D0006200089580916000813091F120F08230B9
:1002E00009F44DC0089560E080E00E943F0262E0A2
:1002F00080E00E943F0280916600882351F01092B6
:10030000660061E080E00E94430261E081E00E94BB
:10031000430280916700882309F45FC01092670050
:1003200061E080E00E943F0261E081E00E943F02C4
:1003300062E081E00E943F0281E0809360000895C6
:1003400062E080E00E943B0260E081E00E943B02AC
:1003500080916700882309F440C01092670062E032
:1003600080E00E943F0261E080E00E943B0261E089
:1003700081E00E943B0282E08093600008958091BA
:100380006600882351F01092660061E080E00E94D0
:10039000430261E081E00E9443028091670088236C
:1003A000E1F01092670061E080E00E943F0261E0AE
:1003B00081E00E943F0260E081E00E943F0260E035
:1003C00080E00E943B0262E081E00E943B021092CA
:1003D0006000109261001092620008958FB78068EB
:1003E0008FBF60E080E00E94370261E080E00E9401
:1003F000370262E080E00E94370260E080E00E9405
:100400003F0261E080E00E943F0262E080E00E94E3
:100410003F0260E081E00E94370261E081E00E94DB
:10042000370262E081E00E94370262E081E00E94D0
:100430003B0262E083E00E9433028BB780648BBF93
:1004400085B7816085BF85B7826085BF0E947A00CD
:10045000089580916200813019F40E941301F9CF50
:100460000E94A000F6CF40E00E944F02089541E0B4
:100470000E944F02089541E00E94C202089540E0A8
:100480000E94C202089570E090E00E943503089532
:100490000E94EE010E94290280E090E008956830F9
:1004A00008F06FC0843008F06CC0813001F130F08A
:1004B0008230B1F1833009F44CC00895413059F4D1
:1004C0002AB381E090E002C0880F991F6A95E2F795
:1004D000822B8ABB08952AB381E090E002C0880F86
:1004E000991F6A95E2F7809582238ABB089541306F
:1004F00059F427B381E090E002C0880F991F6A95F4
:10050000E2F7822B87BB089527B381E090E002C019
:10051000880F991F6A95E2F78095822387BB08951B
:10052000413059F424B381E090E002C0880F991F54
:100530006A95E2F7822B84BB089524B381E090E0B2
:1005400002C0880F991F6A95E2F78095822384BBC9
:100550000895413059F421B381E090E002C0880F42
:10056000991F6A95E2F7822B81BB089521B381E040
:1005700090E002C0880F991F6A95E2F78095822368
:1005800081BB0895683008F06FC0843008F06CC0FB
:10059000813001F130F08230B1F1833009F44CC088
:1005A0000895413059F42BB381E090E002C0880FE8
:1005B000991F6A95E2F7822B8BBB08952BB381E0DC
:1005C00090E002C0880F991F6A95E2F78095822318
:1005D0008BBB0895413059F428B381E090E002C00C
:1005E000880F991F6A95E2F7822B88BB089528B37C
:1005F00081E090E002C0880F991F6A95E2F780952C
:10060000822388BB0895413059F425B381E090E0FE
:1006100002C0880F991F6A95E2F7822B85BB089567
:1006200025B381E090E002C0880F991F6A95E2F738
:100630008095822385BB0895413059F422B381E02F
:1006400090E002C0880F991F6A95E2F7822B82BB67
:10065000089522B381E090E002C0880F991F6A9547
:10066000E2F78095822382BB0895813089F028F0DB
:100670008230C9F0833011F108952BB381E090E00E
:1006800002C0880F991F6A95E2F782278BBB0895F5
:1006900028B381E090E002C0880F991F6A95E2F7C5
:1006A000822788BB089525B381E090E002C0880FBF
:1006B000991F6A95E2F7822785BB089522B381E0EE
:1006C00090E002C0880F991F6A95E2F7822782BBEB
:1006D00008951F920F920FB60F9211242F933F93FC
:1006E0004F935F936F937F938F939F93AF93BF933A
:1006F000EF93FF93E0916800F0916900309709F063
:100700000995FF91EF91BF91AF919F918F917F914B
:100710006F915F914F913F912F910F900FBE0F906E
:100720001F901895FC0183B713BE82B712BE89B71C
:1007300019BE93B72085987F922B93BF808182BF8B
:1007400089B7816089BF83B78F7B83BF83B7877F7A
:1007500083BF83B7806883BF85E083BF089590938C
:0C0760006900809368000895F894FFCFB2
:00000001FF
