:100000000C942A000C943C000C943C000C943C0092
:100010000C943C000C943C000C943C000C943C0070
:100020000C943C000C943C000C943C000C943C0060
:100030000C943C000C943C000C943C000C943C0050
:100040000C943C000C943C000C943C000C943C0040
:100050000C943C0011241FBECFE5D8E0DEBFCDBF1D
:1000600020E0A0E6B0E001C01D92A136B207E1F7A2
:100070000E944A000C9467010C94000041E062E089
:1000800081E40E945100089541E062E081E40E9411
:10009000DC00FACF0E943E000E94440080E090E025
:1000A0000895823451F118F4813441F082C08334D0
:1000B00009F442C0843409F45EC07BC041110CC015
:1000C0002AB381E090E002C0880F991F6A95E2F799
:1000D000809582238ABB6DC0413059F42AB381E0F8
:1000E00090E002C0880F991F6A95E2F7822B8ABBC5
:1000F00060C081E0809360005CC041110CC027B3F8
:1001000081E090E002C0880F991F6A95E2F7809520
:10011000822387BB4EC0413059F427B381E090E081
:1001200002C0880F991F6A95E2F7822B87BB41C0F6
:1001300081E0809360003DC041110CC024B381E098
:1001400090E002C0880F991F6A95E2F7809582239C
:1001500084BB2FC0413059F424B381E090E002C049
:10016000880F991F6A95E2F7822B84BB22C081E039
:10017000809360001EC041110CC021B381E090E06B
:1001800002C0880F991F6A95E2F78095822381BB90
:1001900010C0413059F421B381E090E002C0880FD3
:1001A000991F6A95E2F7822B81BB03C081E080939F
:1001B0006000809160000895823451F118F4813418
:1001C00041F082C0833409F442C0843409F45EC033
:1001D0007BC041110CC02BB381E090E002C0880FBE
:1001E000991F6A95E2F7809582238BBB6DC04130E1
:1001F00059F42BB381E090E002C0880F991F6A95F3
:10020000E2F7822B8BBB60C082E0809360005CC011
:1002100041110CC028B381E090E002C0880F991F03
:100220006A95E2F78095822388BB4EC0413059F42D
:1002300028B381E090E002C0880F991F6A95E2F729
:10024000822B88BB41C082E0809360003DC0411199
:100250000CC025B381E090E002C0880F991F6A9519
:10026000E2F78095822385BB2FC0413059F425B336
:1002700081E090E002C0880F991F6A95E2F7822B17
:1002800085BB22C082E0809360001EC041110CC07B
:1002900022B381E090E002C0880F991F6A95E2F7CF
:1002A0008095822382BB10C0413059F422B381E093
:1002B00090E002C0880F991F6A95E2F7822B82BBFB
:1002C00003C082E080936000809160000895F894FC
:0202D000FFCF5E
:00000001FF
